:030000000208D41F
:0C08D400787FE4F6D8FD75810B02085215
:0D08C70048656C6C6F00576F726C648500A3
:100852001208F41208B37BFF7A0879C71208007FE6
:0F086200C01208E07BFF7A0879CD12080080FEF3
:0308F400D281228C
:10082C00E4FDFCE4FBFAC3EB9FEE6480F8EA648021
:10083C009850070BBB00010A80EC0DBD00010CBCED
:05084C0003E1BDE8DE40
:010851002284
:0A08E0008FA0C28012089FD282226E
:0D089F00C281D2827F017E0012082CC2822D
:0708AC007F0A7E0002082C08
:1008B3007F381208E07F0E1208E07F011208E07F04
:0408C300800208E0C7
:0A08EA008FA0D28012089FD2822254
:060800008B088A09890A39
:1008060012088A8F0BE50B601CAB08AA09A90A120D
:100816000871FF1208EA7401250AF50AE43509F59C
:0508260009150B80E044
:01082B0022AA
:10087100BB010689828A83E0225002E722BBFE0285
:09088100E32289828A83E49322B8
:10088A00E4FFFE120871600C0FEF70010E09E970A7
:05089A00F20A80EF22CC
:00000001FF
